:100000006F00D06E1300000013000000130000000A
:100010001300000013000000130000001300000094
:100020001300000013000000130000001300000084
:08003000130000007300100032
:100038000000000000000000480200004C02000020
:1000480000000000840E0000000000000000000016
:10005800860E0000880E000000000000000000006E
:100068008A0E0000000000008C0E00000000000056
:100078008E0E0000900E0000920E0000940E0000FC
:10008800960E0000980E00009A0E00009C0E0000CC
:100098009E0E0000A00E0000A20E0000A40E00009C
:1000A800A60E0000A80E0000AA0E0000AC0E00006C
:1000B800AE0E0000B00E0000B20E0000B40E00003C
:1000C800B60E0000B80E0000BA0E0000BC0E00000C
:1000D800BE0E0000C00E0000C20E0000BC040000EE
:1000E800C60E0000C80E0000CA0E0000CC0E0000AC
:1000F800CE0E0000D00E0000D20E0000D40E00007C
:10010800D60E0000D80E0000DA0E0000DC0E00004B
:10011800DE0E0000E00E0000E20E0000E40E00001B
:10012800E60E0000E80E0000EA0E000000000000E5
:080138000000000000000000BF
:10014000397101436EC619A0397141536AC866CA34
:1001500062CC5ECE19A0397101535AD056D252D416
:100160004ED64AD826DA22DC06DE3301614082828E
:1001700041114AC026C222C406C68282B24D410144
:10018000024D924C224CB24B4101024B924A224A00
:10019000B2494101024992442244B2404101828065
:1001A0003D432A876373C3029377F700BDEFADE544
:1001B000937606FF3D8ABA960CC34CC30CC74CC756
:1001C0004107E36BD7FE11E28280B306C3408A0683
:1001D0009702000096966780A6002307B700A30643
:1001E000B7002306B700A305B7002305B700A30493
:1001F000B7002304B700A303B7002303B700A3028B
:10020000B7002302B700A301B7002301B700A30082
:10021000B7002300B700828093F5F50F9396850011
:10022000D58D93960501D58D61B7939627009702DA
:10023000000096968682E78086FA9680C1171D8F09
:100240003E96E374C3F8A5B77300203001A0EFF227
:100250009FF00569797113054980854502D002D266
:1002600002D402D602C402C62318010002CA02CC7C
:1002700002CE02C002C2EF00B07B85450545EF000B
:10028000107D856737140140938707808D444C08A3
:1002900013050480FC82E1473ECE26CCEF00F05BE4
:1002A000C1494C0813050480C147FC824ECE26CCC0
:1002B000EF00B05A4C081305048093070002FC823B
:1002C0004ECE26CCEF0070594C08130504809307DE
:1002D0000004FC824ECE26CCEF0030589307000875
:1002E0004C0813050480FC82373401404ECE26CCE6
:1002F000EF00B0562C00130504C01309791B4AC641
:1003000002C4C164EF009076938404070C101305B7
:1003100004C09307A02326D02313F1022314010263
:10032000EF10A0149307E0290C10130504C0231349
:10033000F10226D023140102EF10E00905490C1048
:10034000130504C026D02313210323140102EF0058
:10035000307F130504C08545EF106019130504C0F4
:100360008145EF10601E130504C08145EF10201F6A
:10037000130504C08145EF10601F130504C08545B7
:10038000EF10001A130504C08545EF10C014AD47E7
:100390002C00370500403EC602C4EF00306D0C1043
:1003A0003705004026D02313210323140102EF0058
:1003B0009072854537050040EF1060138145370581
:1003C0000040EF108017854537050040EF104015BD
:1003D000854537050040EF100010054693050020C5
:1003E00037050040EF1020139307B0220A857C8068
:1003F00085473EC223010100EF005057130504C09A
:1004000005469145EF1000100546A145130504C0AF
:10041000EF10400F13050030EF10402123A2A182FE
:1004200013050030EF10802023AAA180130540405F
:10043000EF10C01FAA84138481811305404004C0BB
:10044000EF10C01EB707E00048C023A0F4402320EF
:10045000F54045611DBBEFF21FD079712A84AE894A
:10046000054585453289B68402C202C402C602C867
:1004700002CA02CC02CE02D002D202D402D6EF00CF
:1004800050592285EF00F02EC1473EC69307000861
:100490003ECC930700203ECE8567938707804C00B3
:1004A0003ED022858D674EC24AC426C83ED402CAB9
:1004B00002D202D6EF00B0354561C1B9411122C662
:1004C000373401409145130504C026C4EF10200CB9
:1004D00085476309F51E130504C0A145EF10600AA6
:1004E000138401821E201307B0038507C207C1834E
:1004F0001EA01E206377F7001E201307B01B637B2E
:10050000F71E1E20130790036372F71A1E201307AD
:10051000901B636DF7181E20858B639907181E20AA
:100520001A20138667FC130767FC9358F74193D68C
:10053000C8019357F641B308D700BD8B03A541828C
:10054000B29783A5418193F8F8009187B388D8408A
:1005500093F7F70F960793F8F80F096E096893D889
:1005600018003E95BE95714713838181130E8E88C6
:1005700013088808930EC0419DA82320E60193F23A
:1005800006021306C7FE3E966386020C2320E60190
:1005900093F20601130607FF3E966386020C2320A2
:1005A000E60193F28600130647FF3E966386020C2F
:1005B0002320E60193F24600130687FF3E966386EA
:1005C000020C2320E60193F226001306C7FF3E9695
:1005D0006386020C2320E601858ABA97E9C623A028
:1005E000E70113070702050585056301D70D1421EF
:1005F0001E2090218E068583F2968507C696858BF0
:1006000094228A07135F46009A971D8A0A069C4324
:1006100042960A0F93928601429F832F060093D23F
:100620008241130647FE032F0F003E9663CB021054
:100630002320F601130687FE93F206043E96E39EFE
:1006400002F22320F60193F206021306C7FE3E963D
:10065000E39E02F22320F60193F20601130607FF40
:100660003E96E39E02F22320F60193F286001306E3
:1006700047FF3E96E39E02F22320F60193F24600E6
:10068000130687FF3E96E39E02F22320F60193F2C3
:1006900026001306C7FF3E96E39E02F22320F601D2
:1006A000858ABA978DFE23A0F70125BF1E20130768
:1006B000D0206374F700231004003244A2444101A7
:1006C00073002030130504C09145EF00906B138434
:1006D00001821E20C207C183A1CF1E200D47E31E49
:1006E000F7FC371501400546C14513050580EF00AD
:1006F000F025E1B71E20138381818607918B3E93FD
:1007000003260300B7040240B71501409385058115
:1007100013858405930610103D3B8545138584059C
:10072000EF0070121E2013079003E361F7DEBDBFD8
:10073000371501400146C14513050580EF00102122
:1007400069BF2320E601FDB5EFF29F9F797109454E
:10075000EF007021ED3C138D418203250D0013063F
:1007600000308145B7040020253C9384040613849F
:1007700041818C20084013060030B72D00000D3455
:10078000EF007062B7270000938717823ECC9387F3
:100790005D833EC6B7270000938797833ECEB72779
:1007A0000000938737853EC8B72700009387578599
:1007B0003ED0B7270000938747863EC4B727000086
:1007C000938787863ED4B72700009387A7863EC2CB
:1007D000B72700009387D7863ED2B72700009387BC
:1007E00077883ECA8567B71A0000B729000093874B
:1007F00087385D4A938C0181138C1181938ADA7F4B
:100800009389E9813ED613090002014B930B003214
:10081000DA8D03260D006E962300B601EF00F0720C
:1008200010409375750729456E960CA2850DEF0053
:10083000305AE310B9FF13090902130B0B02E31935
:1008400079FD1305803EEF00B058614903250D0086
:100850001306002E7D1993050502EF00D05D0840B8
:100860001306002E93050502EF00F05C03250D0032
:100870001306000281451305052E1D32084013069C
:10088000000281451305052E213A13054006EF00AD
:100890003054E31D09FA03250D001306003081458D
:1008A00001328C20084013060030814DD538FD4BB5
:1008B00023800C0023000C00014601451309401F52
:1008C00093F77D0093D53D409D899207AE979CA0FC
:1008D000568B9305300483270D001606B297AA970E
:1008E0008CA303460C001C4003C50C008C2016068C
:1008F000B297AA978CA383C70C00850793F7F70FCD
:1009000063EEFB002380FC006389690783450B00CD
:1009100003C50C0003460C00050B75BF83470C0094
:1009200023800C00850793F7F70F2300FC00E37D7D
:10093000FAFC03250D001306002E93050502EF00B7
:10094000904F08401306002E93050502EF00B04EAD
:1009500003250D001306000281451305052EEFF057
:100960003F8408401306000281451305052EEFF071
:100970003F8323004C01E39B69F9850D7945EF0026
:10098000304563872D0103C50C0003460C000DBFE5
:100990001305803EEF00D04303250D009307100799
:1009A0001306003081459CA0EFF08FFF8C2008409B
:1009B000130600306249EFF0AFFE7D4B23800C0040
:1009C00023000C001305D0040146814529A823808B
:1009D000FC00B2476380270B83C50C0003460C0064
:1009E00003450900050983270D001606B297AE9747
:1009F00088A303460C001C4003C50C008C2016067F
:100A0000B297AA978CA383C70C00850793F7F70FBB
:100A1000E37FFBFA83470C0023800C00850793F7E4
:100A2000F70F2300FC00E376FAFA03250D00130606
:100A3000002E93050502EF00104008401306002E1B
:100A400093050502EF00303F03250D001306000259
:100A500081451305052EEFF0AFF4084013060002A0
:100A600081451305052EEFF0AFF3B24723004C018B
:100A7000E39427F7854723800C002300FC0072498C
:100A800013053004054681457D4B29A82380FC00D1
:100A9000C2476380270B83C50C0003460C00034547
:100AA0000900050983270D001606B297AE9788A3A3
:100AB00003460C001C4003C50C008C201606B297A0
:100AC000AA978CA383C70C00850793F7F70FE37FE2
:100AD000FBFA83470C0023800C00850793F7F70F80
:100AE0002300FC00E376FAFA03250D001306002E1E
:100AF00093050502EF00303408401306002E9305DD
:100B00000502EF00503303250D0013060002814556
:100B10001305052EEFF0CFE80840130600028145CB
:100B20001305052EEFF0CFE7C24723004C01E394F5
:100B300027F7894723800C002300FC000259130586
:100B40002003094681457D4B29A82380FC00A2474C
:100B50006380270B83C50C0003460C000345090086
:100B6000050983270D001606B297AE9788A30346A2
:100B70000C001C4003C50C008C201606B297AA97E7
:100B80008CA383C70C00850793F7F70FE37FFBFA6D
:100B900083470C0023800C00850793F7F70F230091
:100BA000FC00E376FAFA03250D001306002E9305E8
:100BB0000502EF00502808401306002E9305050299
:100BC000EF00702703250D00130600028145130571
:100BD000052EEFF0EFDC08401306000281451305F7
:100BE000052EEFF0EFDBA24723004C01E39427F73B
:100BF0008D4723800C002300FC0022591305F004CC
:100C00000D4681457D4B29A82380FC0092470509AC
:100C10006380270B83C50C0003460C0003450900C5
:100C200083270D001606B297AE9788A303460C00E3
:100C30001C4003C50C008C201606B297AA978CA303
:100C400083C70C00850793F7F70FE37FFBFA834711
:100C50000C0023800C00850793F7F70F2300FC009E
:100C6000E376FAFA03250D001306002E0509930515
:100C70000502EF00501C08401306002E93050502E4
:100C8000EF00701B03250D001306000281451305BC
:100C9000052EEFF0EFD00840130600028145130542
:100CA000052EEFF0EFCF924723004C01E39427F796
:100CB000DD4723800C002300FC0012591305300689
:100CC0005D4681457D4B29A82380FC00D247638087
:100CD000270B83C50C0003460C00034509000509DA
:100CE00083270D001606B297AE9788A303460C0023
:100CF0001C4003C50C008C201606B297AA978CA343
:100D000083C70C00850793F7F70FE37FFBFA834750
:100D10000C0023800C00850793F7F70F2300FC00DD
:100D2000E376FAFA03250D001306002E930505025B
:100D3000EF00701008401306002E93050502EF0027
:100D4000900F03250D001306000281451305052EA3
:100D5000EFF00FC508401306000281451305052E6C
:100D6000EFF00FC4D24723004C01E39427F732552C
:100D7000EF00100603250D0093070007130600304F
:100D800081459CA0EFF0CFC18C20084013060030B5
:100D9000EFF00FC18DBCB71702409843B706FFF8BC
:100DA00041111367170098C3D84337060200758FA7
:100DB000D8C39843B706F7FEFD16758F98C39843BE
:100DC000B706FCFFFD16758F98C3D843B70681FFA1
:100DD000FD16758FD8C337079F0098C702C402C697
:100DE0009843C166558F98C3B716024005679C4269
:100DF000F18F3EC6A24785073EC4B24781E7A247AE
:100E0000E397E7FEB71702409C431397E700635749
:100E1000070685473EC632478547631FF704B71765
:100E20000240D843B706C1FFFD16D8C3D843D8C384
:100E3000D84313670740D8C3D843758FD8C3D84366
:100E4000B7063D00558FD8C39843B7060001558FAC
:100E500098C3984393166700E3DD06FED843B716A0
:100E60000240719BD8C3D84313672700D8C32147DA
:100E7000DC42B18BE39EE7FE4101828002C661BF86
:100E800001A001A001A001A001A001A001A001A05A
:100E900001A001A001A001A001A001A001A001A04A
:100EA00001A001A001A001A001A001A001A001A03A
:100EB00001A001A001A001A001A001A001A001A02A
:100EC00001A001A001A001A001A001A001A001A01A
:100ED00001A001A001A001A001A001A001A001A00A
:100EE00001A001A001A001A001A001A09701002084
:100EF00093814197174100201301C110171500007D
:100F00001305C51A97F5FF1F9385C50F1386018139
:100F100063FAC5008322050023A055001105910541
:100F2000E3EAC5FE13850181938501846377B500EB
:100F3000232005001105E36DB5FEFD42739002BC50
:100F40008D42739042809302800873A0023097F222
:100F5000FFFF9382A20E93E2320073905230EFF0C3
:100F60009FE397F2FFFF9382627E739012347300C7
:100F700020301C4141677917F98F1CC123200500DF
:100F80002322050023240500B7070240232605007D
:100F9000138787006316E500D8431367F70001A89D
:100FA0001387C7016317E500D8431367070FD8C33A
:100FB000B1A8138707036318E500D84385669386B5
:100FC00006F0558FEDB7138747046315E500D84346
:100FD000BD66C5BF138787056316E500D843B7060E
:100FE0000F00C5B71387C7066316E500D843B706D9
:100FF000F000C1BF138707086316E500D843B706A2
:10100000000FC1B713874709E308E5F882801C4148
:1010100061773D0794517D8F9C45D58F9449D58F3D
:10102000D449D58F944DD58FD44DD58FD451D58FEC
:101030009455D58FD98F1CC1DC455CC19C411CC522
:10104000DC415CC582801C4189C593E717001CC147
:10105000828041677917F98FDDBF9C4513F707013F
:1010600013F8F70001C7D8413368E800372702407A
:10107000145B3707000F758F4DEB85462384D182B3
:10108000371701406315E5009A2135839AA18E2117
:1010900013F7F50F39C318418146854E3D4F930F25
:1010A000800293028004214E3396DE00B3F8C5001F
:1010B000631116039398260033131F011343F3FFA4
:1010C0003377E300B318180133E7E8006397F707B5
:1010D00050C98506E39AC6FD18C11307F00F637562
:1010E000B70454412146854E3D4F930F8002930231
:1010F0008004414EB398CE0033F715016392E802A5
:101100001317260001173313EF001343F3FFB376D1
:10111000D3003317E800D98E6395F703232A15010E
:101120000506E319C6FD54C1828037170140E3105C
:10113000E5F603C7818221DF81BFE39C57F810C920
:1011400049BFE39F57FC23281501D9BFB7170140BA
:101150006316F50083C7818291C3B58119C20CC99A
:1011600082804CC9828023A6A18282809387C1821B
:101170009443182181E63C21920721A89443054617
:10118000639FC6023C21103192076314D60093E797
:1011900007F8B7E600E093F7F70FBA962380F6401A
:1011A0008546935757003397E6005441A5C293876D
:1011B00007048A07B7E600E0B69798C382808C439D
:1011C00089466391D50214313C216365D6008A06B5
:1011D000B6975DB79386E6038A06B69793F7F70F3F
:1011E000920775B790438D46631CD60014313C219D
:1011F0006364D6008606E9BF9386C6078606F1BFFC
:1012000094439147E39EF6F81C31BDB793870706D8
:101210004DB799C5371702405C4B5D8D48CB828036
:10122000B7170240D84B1345F5FF798DC8CB8280A4
:1012300099C5371702401C4F5D8D08CF8280B717C4
:101240000240984F1345F5FF798D88CF828099C56C
:10125000371702405C4F5D8D48CF8280B717024040
:10126000D84F1345F5FF798DC8CF82801E213737BF
:101270000140130707C0C207C1836304E5023707B3
:1012800000406300E50213070740630CE5003717D1
:101290000040930607806306D500130707C0631656
:1012A000E500BA2193F7F7F8D98FFA2193F7F7CF32
:1012B000C207C183D98F1EA1DE215EB59E211EB556
:1012C000B7370140938707C06314F5009C251EB90A
:1012D00085475EA982801E31922103D82500C2076E
:1012E000C183F99BC207C1831EB11E3156211A2D3D
:1012F000C207C183420741831377C7F8518F9225F4
:10130000F59BC20633660601D18F373601401306BE
:1013100006C0C1826310C502B225DD9B03D8E5007B
:10132000D18FD221ED9B93F6F6CFD18FD2253366A4
:101330000601D18E56A11AADFA215AB91EB182808A
:101340001E3165771307F7CFC207C183BD9BC20764
:10135000C1831EB11E31562103D88500C2071396E2
:101360000601162DC18393F7F7FD758F96214182F3
:10137000A206558FB62142074183B3E606019206C5
:10138000D58FB7360140C207938606C0C183631E5E
:10139000D502B62593F7F7F703D8C5009206D58F87
:1013A000D621C207C183920693F7F7FBD58FFD764E
:1013B0009386F63FF18EF225C207C183336606019C
:1013C0000A06D18E13960601418252A11AADFA2166
:1013D0001ABD1EB182801E3103D88500C207C183A9
:1013E00093F7F7EFC207C1831EB11E3156215A2D64
:1013F000C207139606014207962141831377C7F867
:10140000558FB621C18393F7F7DFB3E60601A20635
:10141000D58FB7360140C207938606C04182C1838B
:10142000631FD502FD769386F67FF58FB62503D828
:10143000C500A206D58FD621C207C183A20693F7A5
:10144000F7BFD58FF576FD16F18EF225C207C18361
:10145000336606011206D18E13960601418252A10F
:101460005AADFA215ABD1EB182801A31FD77FD179F
:10147000F98F1EB10358050256215E2D6577922122
:101480001307F7CF7D8FF9772206FD17518FB3F73A
:101490000701B22103D88500C20642073366060160
:1014A0003206D18F37360140C207130606C0C1820B
:1014B0004183C183631AC50071767D16F18ED225F2
:1014C0001A06D18EC206C18256A15AADFA21231046
:1014D000E5041EB182801E2189C593E717001EA175
:1014E0008280C207C183F99BC207C183CDBF8357E6
:1014F000450491C52167D98F2312F5048280C60760
:10150000C583DDBF5E2501C6DD8D4EA5828093C5F6
:10151000F5FFFD8DDDBFEFE2BFC5ED376FE09FC783
:101520001E2189C593E707081EA18280C207C183D7
:1015300093F7F7F7C207C183C5BF1E2DC207C1834A
:10154000DD9BDD8D0EAD82801A2DFD779387F77FB1
:10155000F98FA205CD8FC207C1831EAD82805E2D9B
:10156000C207C183DD9BDD8D4EAD82805A2DFD7794
:101570009387F77FF98FA205CD8FC207C1835EAD38
:10158000828093C5F5FFC205C1810EA982801E2904
:101590004A25ED8F4205418189C76D8D3335A00005
:1015A000828001458280B707002083A7470637174E
:1015B0007A0013070720B3D7E70293F7F70F2389C1
:1015C000F1821307803EB387E7022398F18282807D
:1015D000B7F700E0D8438146799BD8C303D701838E
:1015E0003306A70290CBD4CB98431367070198C367
:1015F00098431367170298C3D843058B75DF984348
:10160000799B98C38280138781801C4393860184D1
:101610003E95636BD500B75600209386068063E540
:10162000A60008C33E858280FD57EDBF9387C18029
:10163000AA858843A1A063F1A504B386C500637D94
:10164000D5029345F6FF8147FD176393F50082802D
:101650003387F600034807003387C7002A97230023
:101660000701DDB73387F50014233307F50085073D
:1016700014A3E319F6FE82808147E5BF011126CA53
:1016800093843500F19806CE22CC4AC84EC6A104F8
:10169000B14763F1F404B14463E0B4042A89A12A98
:1016A0009387418398433A8431E0938781839C43B5
:1016B00091E781454A85212A23ACA182A6854A85E6
:1016C0003922FD5963173507B1472320F9004A85B0
:1016D000252229A0E3D204FCB1471CC10145F240F8
:1016E0006244D2444249B249056182801C40858FE0
:1016F00063CE0702AD4663F6F6001CC03E9404C0FC
:1017000031A05C406312870223AAF1824A85ED2052
:101710001305B4009307440061993307F54061D382
:101720003A94898F1CC065BF5CC3CDB72287404007
:10173000A5BF130435007198E30385FCB305A440ED
:101740004A857120E31D35FB41B741119387C18064
:1017500022C4804306C61C5C8DEB6145C13DB73792
:10176000CDAB08DC9387E7301CC1B7176DE69387D4
:1017700047235CC1B7E705009387C7EE1CC5AD479B
:101780005EA50547814718C95CC9105C3787954C31
:10179000B7F75158144A484A1307D7F29387D742EC
:1017A000B387F602B24022443305E5023E95B38783
:1017B000E60233B7E6029386170014CA2A9733B5B8
:1017C000F6003A9548CA060505814101828041111B
:1017D00022C42A842E8523AE018206C62D35FD57EC
:1017E0006317F5009387C1839C4391C31CC0B2402B
:1017F000224441018280828082800000434833324B
:101800005632303320564741204F7574707574201E
:1018100064656D6F6E7374726174696F6E20000021
:101820004D53582042415349432076657273696F86
:101830006E20312E30000000436F70797269676846
:10184000742031393833206279204D6963726F73A7
:101850006F667400323334333020427974657320FC
:1018600066726565000000004F6B0000636F6C6F6F
:1018700072206175746F2020676F746F20206C690F
:101880007374202072756E000000000000000000DC
:101890007E427E427E428200109254102844820092
:1018A0001214F814345292001010FE1038549200A2
:1018B00010287C923854FE001010107C1010FE008E
:1018C0007E42427E42427E00407E483C287E0800A6
:1018D000FE9292FE8282860004EEA4EFA2EA060047
:1018E0002844823C14244C0028C85CEA6CC8500090
:1018F0007C207C447C447C000C7010FE1010100096
:101900007E101E1222440800007C2828284E000069
:10191000101010FF00000000000000FF1010101059
:10192000101010F0101010101010101F10101010C8
:10193000101010FF101010101010101010101010B8
:10194000000000FF000000000000001F1010101039
:10195000000000F0101010101010101F0000000008
:10196000101010F000000000814224181824428159
:10197000107C1010284482001010FE92FE101000FF
:1019800010105454921030000000000000000000BD
:1019900020202020000020005050500000000000B7
:1019A0005050F850F85050002078A07028F02000D7
:1019B000C0C810204098180040A040A8909860002F
:1019C0001020400000000000102040404020100087
:1019D000402010101020400020A8702070A8200087
:1019E000002020F8202000000000000000202040FF
:1019F00000000078000000000000000000606000AF
:101A00000000081020408000708898A8C8887000E6
:101A10002060A0202020F800708808106080F80066
:101A2000708808300888700010305090F81010004E
:101A3000F880E0100810E000304080F088887000E6
:101A4000F888102020202000708888708888700016
:101A500070888878081060000000200000200000D6
:101A60000000200000202040183060C060301800C6
:101A70000000F800F8000000C06030183060C000BE
:101A8000708808102000200070880868A8A87000DE
:101A900020508888F8888800F04848704848F0004E
:101AA0003048808080483000E05048484850E0008E
:101AB000F88080F08080F800F88080F080808000DE
:101AC000708880B888887000888888F8888888003E
:101AD000702020202020700038101010909060009E
:101AE0008890A0C0A0908800808080808080F800CE
:101AF00088D8A8A88888880088C8C8A89898880026
:101B00007088888888887000F08888F080808000DD
:101B100070888888A8906800F08888F0A090880075
:101B20007088807008887000F82020202020200015
:101B30008888888888887000888888885050200025
:101B4000888888A8A8D8880088885020508888006D
:101B50008888887020202000F80810204080F80035
:101B6000704040404040700088502070207020003D
:101B7000701010101010700020508800000000003D
:101B8000000000000000F8004020100000000000ED
:101B900000007008788878008080B0C888C8B000DD
:101BA000000070888088700008086898889868002D
:101BB00000007088F8807000102820F82020200095
:101BC00000006898986808708080F088888888008D
:101BD0002000602020207000100030101010906055
:101BE0004040485060504800602020202020700075
:101BF0000000D0A8A8A8A8000000B0C88888880065
:101C000000007088888870000000B0C8C8B080806C
:101C100000006898986808080000B0C880808000BC
:101C200000007880F008F0004040F040404830006C
:101C300000009090909068000000888888502000F4
:101C4000000088A8A8A850000000885020508800F4
:101C500000008888986808700000F8102040F8009C
:101C600018202040202018002020200020202000C4
:101C7000C02020102020C00040A81000000000005C
:101C8000000000000000000010387CFEFE387C00E0
:101C90006CFEFEFE7C3810003838FEFED6107C004C
:101CA00010387CFE7C3810000078848484847800AE
:101CB0000078FCFCFCFC780020F04C70A8403C0054
:101CC0000020782078B46400000088848484400078
:101CD0000070007088083000007000F020609800EC
:101CE0000020F82478A4680000905864A820100010
:101CF0000010B8D49418200000101C1070987400C4
:101D0000000000780404380000000000000000001B
:101D1000207C207CAA926400008482828280400021
:101D200038003844040830007000F81020609C002F
:101D300024FA207CA2A244004044F24A48883000A1
:101D400020FC10FC088078000810204020100800BB
:101D500004849E84848448007804000000807C0011
:101D600010FE0804048078008080808084887000E1
:101D700008FE3848380810004444FE4448403C00FF
:101D80004428FE2040403C0000000000000000000D
:101D9000000000006090600038202020000000005B
:101DA000000000202020E000000000008040200013
:101DB0000000003030000000F808F8081020400053
:101DC0000000F0106040800000102060A020200083
:101DD0000020F090102040000000F0202020F000B3
:101DE0000020F060A0A020000040F84850404000D3
:101DF000000070101010F8000000F010F010F0005B
:101E00000000A8A8081020000000807C000000004E
:101E1000F80828302020400008102060A020200072
:101E200020F888880810200000F820202020F800E2
:101E300010F810305090100020F82828284888000A
:101E400020F820F82020200078488808081020007A
:101E5000407850901010200000F808080808F8009A
:101E600050F850501010200000C008C80810E000C2
:101E700000F808102050880040F8485040403800D2
:101E8000888848081020400078487888081020008A
:101E900010E020F820204000A8A8A8080810200082
:101EA0007000F82020204000404060504840400032
:101EB00020F8202020204000007000000000F800E2
:101EC00000F808D02050880020F80830E8202000D2
:101ED0000808081020408000201048484848880022
:101EE0008080F88080807800F80808081020400082
:101EF0000040A0100808000020F82020A8A820001A
:101F000000F8080850201000F000600000F0080001
:101F1000102040809088F800080808502050800069
:101F20007820F8202020180040F848485040400011
:101F3000007010101010F80000F808F80808F800F9
:101F40007000F80808102000484848484810200051
:101F50001050505050589000404040484850600049
:101F600000F888888888F800F88888080810200019
:101F700000C000080810E0009048000000000000C9
:101F8000609060000000000020F8204E40908E001D
:101F900010FE20780404780000FC020202041800FD
:101FA000FE08102020201C002024386080807C0047
:101FB0002CF244449C261C00009E808080904E00A1
:101FC00048487CD2B6AA4C00404CD2624ED24E0059
:101FD00000385492A2A24400049E84848C964C0043
:101FE00010E4264444483000201000201452B2006F
:101FF00000002050880402001E849E848C964C00B1
:1020000010FC10FC709874007010147EA4A448009A
:1020100020F42260A2621C0048487CAA92A24400DC
:1020200020F820F820241800485C6AE224101000F0
:10203000109CB2D2921C2000101C101078947000DA
:10204000601080B8C4843800088484844408300058
:1020500078103844B44C3800202CF42464A42600B2
:1020600078102078840438004040DC6242C244008A
:102070001010202060528C000000000000000000C2
:1020800000000000000000000000E0002000C00090
:102090004000A0006000800080006000A0004000C0
:0820A000C0002000E000000078
:1020A8000000000000000000000000000000000028
:1020B8000000000000000000000000000000000018
:1020C8000000000000000000000000000000000008
:1020D80000000000000000000000000000000000F8
:1020E80000000000000000000000000000000000E8
:1020F80000000000000000000000000000000000D8
:102108007000000000449508A00000200000002096
:00000001FF
